:02000000442892
:0E0006008312031324088A00230882000800D6
:100014000E3083120313FD00FD0B0E2800000800B0
:10002400C330831203139F05C0309F002508F000DE
:10003400F00D7010F00D701070089F042009F0008E
:10004400700883169F059F1783121F140A209F149C
:100054009F1C2E2800002A281F101E08F100F00102
:0C00640083161E08F0040030F1040800B0
:1000700003208A110A128000840AA30A0319A40A21
:08008000F003031D38280800FD
:10008800702004308316031788008901FF3003139A
:1000980085003F308700860102308312A5001220B8
:1000A80070088312A1007108A20070088600700809
:1000B800F2007108F300F30CF20CF313F30CF20CDA
:0A00C800F31372088700502868281F
:1000E00020308400013083120313F0006E30A3002F
:0800F0000030A40038200800D4
:0200DC003034BE
:04400E00F22F000786
:00000001FF
