:020000004A288C
:10000800FF00030E8301A5000A08A4008A018B1CC7
:100018000F28A00A8B1024088A00250E8300FF0EE3
:040028007F0E09003E
:0E002C008312031323088A00220882000800B2
:10003A0016208A110A128000840AA20A0319A30A46
:08004A00F003031D1D2808004E
:10005200831603178C1C2F280000292883120313F0
:10006200260803178D000313270803178C00831635
:100072008C130C150B08F0008B1355308D00AA3031
:100082008D008C14F01B47288B1348288B170C11FA
:02009200080064
:1000940083120313A001A1018316031788018901A8
:1000A40083120313860101308316860090308B007F
:1000B40083122008003A031D60285A28A6016130E3
:1000C400A7002920831203132008013A031D6B287B
:0C00D40064286230A100F001F1016F28E7
:04400E00F22F000786
:00000001FF
