:020000003129A4
:10000800FF00030E8301E6000A08E5008A018B1C45
:100018000F28B90A8B1065088A00660E8300FF0E48
:040028007F0E09003E
:0E002C00213083120313FD00FD0B1A2808007B
:10003A000F3083120313FC004730FD00FD0B232809
:0A004A00FC0B232800000000080052
:060054000000000008009E
:10005A0083120313EC1B33288511342885156C1B76
:10006A003828051139280515EC1A3D2885103E282F
:10007A0085146C1A42280510432805144E1847287F
:10008A0005164828051285162A208512EC194F28CC
:10009A008511502885156C19542805115528051500
:1000AA00EC18592885105A2885146C185E280510F2
:1000BA005F2805144E18632805166428051285164C
:1000CA002A2085124E1C6B281D206C281620080039
:0E00DA008312031364088A0063088200080082
:1000E800831203134E106B08EC002D204E140800E9
:1000F8008E28803083120313E700A128C030E70060
:10010800A1289430E700A128D430E700A128803046
:10011800E700A128831203136708013A03197D2811
:100128006708023A031982286708033A03198528E1
:100138006708043A031988288B286803F0006708C1
:10014800F0077008E7007008EC002D204E10EA0157
:100158006A086907840000080319BA286A08690749
:1001680084000008EB007420EA0AAC284E1408004A
:1001780083160313851205120510851005118511C4
:1001880083128512051285110511851005101D2091
:100198001D201D208514051485162A2085121D2072
:1001A80085162A2085121D2085162A2085121D20D5
:1001B800051085162A2085121D2085162A208512ED
:1001C8008510851585162A2085121D208511051490
:1001D80085162A208512051085162A2085121D20CD
:1001E80085162A208512051485162A2085121D20B9
:1001F800051085162A208512851505158514051400
:0C02080085162A2085121D204E140800C7
:100214006D208A110A128000840AE30A0319E40A91
:08022400F003031D0A29080084
:10022C00831203136708F2007208F100F20A6808DF
:10023C00F000E80A700884000008F00071088400DF
:10024C007008800071088400000803192E291A29EF
:06025C006708F000080035
:10026200423083120313A0006530A1006630A20061
:100272006F30A3007230A4006530A5002030A600C4
:100282006330A7006C30A8006930A9006330AA006F
:100292006B30AB00AC014130AD006630AE00743063
:1002A200AF006530B0007230B1002030B200633070
:1002B200B3006C30B4006930B5006330B6006B3007
:1002C200B700B801B90183160317880189018312A7
:1002D2000313860101308316860090308B004F3065
:1002E2008312E7002030E80016213A30E7002D3073
:1002F200E8001621BC200C30EC002D203908003A11
:10030200031D84297F290130EC002D200130E700F4
:100312000130E8004F30E9007C203908013A031D22
:1003220093298E290130EC002D200130E7000130A5
:0E033200E8003A30E9007C20B9017F299F29BC
:04400E00F22F000786
:00000001FF
