:020000000A2ACA
:06000600000000000800EC
:10000C000F3083120313FC004730FD00FD0B0C284E
:0A001C00FC0B0C2800000000080097
:0E002600213083120313FD00FD0B1728080084
:1000340083160313CA1B21288312861123288312D3
:10004400861583164A1B2928831206112B2883122E
:1000540006158316CA1A3128831286103328831290
:10006400861483164A1A3928831206103B288312F1
:10007400061457183F280616402806128616032031
:1000840086128316CA194928831286114B288312B3
:10009400861583164A195128831206115328831290
:1000A40006158316CA185928831286105B288312F2
:1000B400861483164A186128831206106328831253
:1000C4000614571867280616682806128616032091
:0E00D4008612571C6F28062070281320080083
:1000E20083120313F801F9011030FC00710DF80DB1
:1000F200F90D7408F8027508031C750FF90203184C
:1001020089287408F80775080318750FF907031092
:0A011200F00DF10DFC0B772808003A
:10011C008312031357106D088316CA001A20571444
:02012C000800C9
:10012E0083160313C801053048020318A728480890
:10013E0083126F078400203080008316C80A9A2825
:10014E00480883126F07840080018316C80348088D
:10015E0083126F078316C9000A30F400F50183126B
:10016E006D08F0006E08F10071207808F000790833
:10017E00F1003030F00783164908840070088000C3
:10018E000A30F400F50183126D08F0006E08F100DC
:10019E0071207008ED007108EE0000307106031D2D
:1001AE00DA2800307006031DDD28E0288316C80308
:0401BE00AE2808005F
:0E01C2008312031363088A006208820008009B
:1001D000FA28803083120313E4000D29C030E400B4
:1001E0000D299430E4000D29D430E4000D2980302D
:1001F000E4000D29831203136408013A0319E92866
:100200006408023A0319EE286408033A0319F12836
:100210006408043A0319F428F7286503F000640819
:10022000F0077008E40070088316CA001A205710FF
:10023000E701670866078400000803192729670893
:10024000660784000008ED008E20E70A192957147C
:020250000800A4
:10025200831203136408F2007208F100F20A6508BF
:10026200F000E50A700884000008F00071088400BC
:1002720070088000710884000008031941292D29A3
:060282006408F000080012
:1002880083120313E901EA016408EB006508EC0036
:1002980080306506F00080307002031D552900305B
:1002A8006402031863290130E9000030EA00640899
:1002B800003CEB006508031C013EEC01EC026B08F6
:1002C800ED006C08EE006608EF00972006308312F8
:1002D8000313E7000030E8006808003C031D762996
:1002E8006708003C0318912967086607F200013087
:1002F8006702F0000030031C013E6802F10070083C
:10030800660784000008F000720884007008800006
:100318000130E702031CE8037029660884002030D6
:10032800800069086A040319AF29E701E801670832
:10033800660784000008203A031DA629E70A031966
:10034800E80A9B290130E702031CE80367086607EF
:0803580084002D308000080034
:1003600083160313861206120610861006118611D4
:1003700083128612061286110611861006100620B8
:1003800006200620861406148616032086120620F0
:100390008616032086120620861603208612062063
:1003A0000610861603208612062086160320861263
:1003B00086108615861603208612062086110614DE
:1003C0008616032086120610861603208612062043
:1003D000861603208612061486160320861206202F
:1003E0000610861603208612861506158614061436
:0C03F00086160320861206205714080011
:1003FC00E1208A110A128000840AE20A0319E30A36
:08040C00F003031DFE290800A6
:10041400533083120313A0006530A1006330A2009F
:100424006F30A3006E30A4006430A5002030A60015
:100434006C30A7006930A8006E30A9006530AA00AE
:10044400AB014430AC006530AD006D30AE006F30B0
:10045400AF002030B0007430B1006530B2007830A5
:10046400B3007430B4003130B500B6014430B70085
:100474006530B8006D30B9006F30BA002030BB0071
:100484007430BC006530BD007830BE007430BF00ED
:10049400C0018316031788018901B021A030E4004C
:1004A4002C30E50029210130E4000130E500A030C2
:1004B400E600E8200F308316CA001A2001308316A4
:1004C400CA001A20B430E4003730E5002921013095
:1004D400E4000230E500B430E600E8204130E400F6
:1004E4002030E50029210230E4000530E5004130E8
:1004F400E600E82001308316CA001A207B30D500BC
:100504000030D6007B30E4000030E5005830E600CF
:1005140044210130E4000130E5005830E600E820D1
:02052400922A19
:04400E00F22F000786
:00000001FF
