:02000000E829ED
:06000600000000000800EC
:10000C000F3083120313FC004730FD00FD0B0C284E
:0A001C00FC0B0C2800000000080097
:0E002600213083120313FD00FD0B1728080084
:1000340083120313DE1B20288511212885155E1BDE
:100044002528051126280515DE1A2A2885102B28AF
:1000540085145E1A2F280510302805143118342809
:10006400051635280512851603208512DE193C284D
:1000740085113D2885155E1941280511422805156D
:10008400DE1846288510472885145E184B2805106D
:100094004C280514311850280516512805128516C8
:1000A40003208512311C58280620592813200800E3
:1000B400063083120313FD00FD0B5E2800000800C8
:0E00C4008312031351088A00500882000800BE
:1000D20083120313D901DB01DC011030DD0004308F
:1000E2005C0203189A28F03088008030F000700813
:1000F200083E84005D09F0007008800003200320A0
:100102000F300805F0007008DA007008031994280F
:100112005B08D9005A0803199228DA0CDA13D90AB3
:100122008B280430DC00DD0D5D100430DB07DC0AB7
:0801320070285908F0000800D4
:10013A008312031331105908DE001A203114080003
:10014A0083120313F801F9011030FC00710DF80D48
:10015A00F90D7408F8027508031C750FF9020318E3
:10016A00BD287408F80775080318750FF9070310F6
:0A017A00F00DF10DFC0BAB2808009E
:1001840083120313D701053057020318D0285708E8
:100194005607840020308000D70AC5285708560720
:1001A40084008001D70357085607D8000A30F400AA
:1001B400F5015408F0005508F100A5207808F00076
:1001C4007908F1003030F007580884007008800086
:1001D4000A30F400F5015408F0005508F100A52098
:1001E4007008D4007108D50000307106031DFC2886
:1001F40000307006031DFF280129D703D528080005
:100204001429803083120313D4002729C030D4006A
:1002140027299430D4002729D430D40027298030CA
:10022400D4002729831203135408013A031903291C
:100234005408023A031908295408033A03190B29EC
:100244005408043A03190E2911295503F0005408DF
:10025400F0077008D4007008DE001A203110D701AE
:100264005708560784000008031940295708560701
:1002740084000008D9009D20D70A322931140800CF
:1002840069207008D4000F300805F00003194C29C8
:0A0294005A2045295408F000080024
:10029E006129803083120313D4007429C030D40036
:1002AE0074299430D4007429D430D4007429803049
:1002BE00D4007429831203135408013A03195029E8
:1002CE005408023A031955295408033A03195829B8
:1002DE005408043A03195B295E295503F0005408AB
:1002EE00F0077008D40031147008DE001A203110A7
:0A02FE005608DE001A203114080033
:100308008316031385120512051085100511851132
:100318008312851205128511051185100510062016
:10032800062006208514051485160320851206204C
:1003380085160320851206208516032085120620BF
:1003480005108516032085120620851603208512C0
:10035800851085158516032085120620851105143C
:1003680085160320851205108516032085120620A0
:10037800851603208512051485160320851206208C
:100388000510851603208512851505158514051495
:0C03980085160320851206203114080091
:1003A40062208A110A128000840AD00A0319D10A31
:0803B400F003031DD22908002B
:1003BC00803083120313F0007008083E8400FF3075
:0403CC0080000800A5
:1003D000203083120313A000A1015430A200693021
:1003E000A3006D30A4006530A5007330A6003A303C
:1003F000A700A8014B30A9006530AA007930AB00F6
:100400002030AC003A30AD00AE01D201D301DE2184
:10041000831603178801890184210130DE001A2028
:100420000C30DE001A200130D4000130D500293014
:10043000D60002210230D4000130D5002230D6008F
:100440000221B00142217008B00070080319222A6D
:10045000592A3130B000992A3230B000992A33300D
:10046000B000992A4130B000992A3430B000992A5E
:100470003530B000992A3630B000992A4230B000A9
:10048000992A3730B000992A3830B000992A39308B
:10049000B000992A4330B000992A2A30B000992A36
:1004A0003030B000992A2330B000992A4430B0008F
:1004B000992A3008013A0319292A3008023A031907
:1004C0002C2A3008033A03192F2A3008043A03195A
:1004D000322A3008053A0319352A3008063A03193A
:1004E000382A3008073A03193B2A3008083A03191A
:1004F0003E2A3008093A0319412A30080A3A0319FA
:10050000442A30080B3A0319472A30080C3A0319D9
:100510004A2A30080D3A03194D2A30080E3A0319B9
:10052000502A30080F3A0319532A3008103A031999
:10053000562A30082F060319A42A0130D2000030B1
:10054000D3003008AF00A72AD20A0319D30A01301A
:10055000D4000A30D5003008D6004F2100305306B1
:10056000031DB42AFF305206031DBF2AD201D30156
:100570000230D4000A30D5002030D60002215208C3
:10058000D4005308D5003230D600C2200230D40047
:0E0590000A30D5003230D6000221212ACE2AB0
:04400E00F22F000786
:00000001FF
