:02000000FB2CD7
:10000800FF00030E8301E7000A08E8008A010B1DC0
:100018001328DE0A0319DF0A0B1160308100680813
:0C0028008A00670E8300FF0E7F0E0900A7
:06003400000000000800BE
:0E003A00213083120313FD00FD0B2128080066
:100048000F3083120313FC004730FD00FD0B2A28F4
:0A005800FC0B2A280000000008003D
:1000620083120313F801F9011030FC00710DF80D31
:10007200F90D7408F8027508031C750FF9020318CC
:1000820049287408F80775080318750FF907031053
:0A009200F00DF10DFC0B37280800FB
:10009C0083160313E51B55288312851157288312E9
:1000AC0085158316651B5D28831205115F28831245
:1000BC0005158316E51A65288312851067288312A7
:1000CC0085148316651A6D28831205106F28831208
:1000DC0005146218732805167428051285161A2043
:1000EC0085128316E5197D28831285117F288312CA
:1000FC0085158316651985288312051187288312A7
:10010C0005158316E5188D28831285108F28831208
:10011C008514831665189528831205109728831269
:10012C00051462189B2805169C28051285161A20A2
:0E013C008512621CA3282420A4281D20080080
:10014A0083160313E001E201E3011030E4000430F6
:10015A0063020318DA28F030831288008030F00036
:10016A007008083E840083166409F0007008800055
:10017A001A201A200F3083120805F000700883161F
:10018A00E10070080319D4286208E0006108031925
:10019A00D228E10CE113E00ACB280430E300E40D95
:1001AA0064100430E207E30AAC286008F000080093
:1001BA007408F8027508031C750FF9027608031C07
:1001CA00760FFA027708031C770FFB02F30D07304C
:1001DA00FC00730DF80DF90DFA0DFB0D7408731C74
:1001EA000429F8027508031C750FF9027608031C26
:1001FA00760FFA027708031C770FFB021129F8071A
:10020A0075080318750FF90776080318760FFA07A9
:10021A0077080318770FFB07F30DFC0BEE28720D16
:10022A00F80DF90DFA0DFB0D7408731C2A29F80252
:10023A007508031C750FF9027608031C760FFA027B
:10024A007708031C770FFB023729F807750803188C
:10025A00750FF90776080318760FFA077708031857
:10026A00770FFB07F20D0730FC00720DF80DF90D40
:10027A00FA0DFB0D7408721C5029F8027508031C4C
:10028A00750FF9027608031C760FFA027708031C29
:10029A00770FFB025D29F80775080318750FF90730
:1002AA0076080318760FFA0777080318770FFB0703
:1002BA00F20DFC0B3A29710DF80DF90DFA0DFB0D33
:1002CA007408721C7629F8027508031C750FF90266
:1002DA007608031C760FFA027708031C770FFB02D5
:1002EA008329F80775080318750FF90776080318A4
:1002FA00760FFA0777080318770FFB07F10D073017
:10030A00FC00710DF80DF90DFA0DFB0D7408711C46
:10031A009C29F8027508031C750FF9027608031C5C
:10032A00760FFA027708031C770FFB02A929F80750
:10033A0075080318750FF90776080318760FFA0778
:10034A0077080318770FFB07F10DFC0B8629700D50
:10035A00F80DF90DFA0DFB0D7408711CC229F8028B
:10036A007508031C750FF9027608031C760FFA024A
:10037A007708031C770FFB02CF29F80775080318C3
:10038A00750FF90776080318760FFA077708031826
:10039A00770FFB07F00D0730FC00700DF80DF90D13
:1003AA00FA0DFB0D7408701CE829F8027508031C85
:1003BA00750FF9027608031C760FFA027708031CF8
:1003CA00770FFB02F529F80775080318750FF90767
:1003DA0076080318760FFA0777080318770FFB07D2
:1003EA00F00DFC0BD2297018082A7408F807750852
:1003FA000318750FF90776080318760FFA077708B6
:08040A000318770FFB0708003F
:0E0412008312031361088A006008820008004C
:10042000FB09FA09F909F809F80A0319F90A031985
:08043000FA0A0319FB0A080097
:1004380083160313E3010530630203182A2A6308AD
:100448006207840020308000E30A1F2A63086207DD
:1004580084008001E30363086207E4000A30F400C3
:10046800F5016008F0006108F10031207808F0001B
:100478007908F1003030F0078316640884007008AA
:1004880080000A30F400F5016008F0006108F1000E
:10049800312070088316E0007108E1000030710611
:1004A800031D582A00307006031D5B2A5D2AE303EA
:0404B8002F2A0800DF
:1004BC0083120313621083166008E5004E20621449
:0204CC00080026
:1004CE00063083120313FD00FD0B6B2A000008009B
:1004DE00812A803083120313E900942AC030E90088
:1004EE00942A9430E900942AD430E900942A80307A
:1004FE00E900942A831203136908013A0319702A3A
:10050E006908023A0319752A6908033A0319782A09
:10051E006908043A03197B2A7E2A6A03F0006908E7
:10052E00F0077008E90070088316E5004E2062108F
:10053E00EC016C086B07840000080319AF2A6C08E5
:10054E006B07840000088316E0005E22EC0AA02AE6
:04055E00621408001B
:1005620083120313EE01EF0169088316DE00831282
:100572006A088316DF00803083126A06F00080303A
:100582007002031DC62A003069020318D72A0130FF
:10059200EE000030EF006908003C8316DE00831293
:1005A2006A08031C013E8316DF01DF0283165E0820
:1005B200E0005F08E10083126B088316E2001C2250
:1005C20006308312EC000030ED006D08003C031D84
:1005D200EC2A6C08003C0318072B6C086B07F2002E
:1005E20001306C02F0000030031C013E6D02F1008C
:1005F20070086B0784000008F0007208840070081D
:1006020080000130EC02031CED03E62A6B08840033
:10061200203080006E086F040319252BEC01ED01D8
:100622006C086B0784000008203A031D1C2BEC0A9F
:100632000319ED0A112B0130EC02031CED036C08C7
:0A0642006B0784002D3080000800D3
:10064C00831203136908393C031C332B30306902C5
:0E065C00031C332B0130F000342BF00108009A
:10066A00831203131A08F100981C3D2B181218164E
:06067A007108F000080009
:0E0680000030831203138C1A0130F0000800C2
:10068E00831203136908F2007208F100F20A6A0875
:10069E00F000EA0A700884000008F0007108840077
:1006AE007008800071088400000803195F2B4B2B23
:0606BE006908F0000800CD
:1006C40009228A110A128000840AE00A0319E10A45
:0806D400F003031D622B080076
:1006DC00831603139816903083129800831687178D
:1006EC00071383128C1E7D2B1A08F000772B080041
:1006FC00A52070088312E9000F300805F0000319DB
:0C070C00892B6722822B6908F00008008E
:1007180083120313FB01FA01F9018030F800F10C90
:10072800F00C031CA02B7408F90775080318750F43
:10073800FA070318FB0A0310F01FA82B7408FA071E
:1007480075080318750FFB07FB0CFA0CF90CF80C6D
:10075800031C932B7B08F3007A08F2007908F10058
:060768007808F000080013
:10076E00831203137408003A031DD22B7508003A46
:10077E00031DD22B7608003A031DD22B7708003AC0
:10078E00031DD22BFF30F000FF30F100FF30F200DE
:10079E007F30F3006B2C83120313FC01F71BFC0A52
:1007AE00FD01FB01FA01F901F801730872047104ED
:1007BE0070040319662C73087706A000A01BFD09B0
:1007CE00F71FF42BF409F509F609F709F40A0319D2
:1007DE00F50A0319F60A0319F70AF31F012CF0099B
:1007EE00F109F209F309F00A0319F10A0319F20AE1
:1007FE000319F30A73087704A000A01B222CDD2036
:10080E00FC1B3F2CFD1F662CF009F109F209F309C0
:10081E00F00A0319F10A0319F20A0319F30AF80987
:10082E00F909FA09FB09F80A0319F90A0319FA0A70
:10083E000319FB0A662CF71F392CF31B332C730894
:10084E00FB007208FA007108F9007008F800F30155
:10085E00F201F101F001092CF301F201F101F001B5
:10086E00F00A0034F309F209F109F009FC17062C1D
:10087E00F80A0319F90A0319FA0A0319FB0A74088C
:10088E007802031D092C75087902031D092C7608C0
:10089E007A02031D092C77087B02031D092CFB012C
:1008AE00FA01F901F801F00A0319F10A0319F20A23
:1008BE000319F30AF31F092CA0012016FF34A0011F
:0A08CE007C1C6A2C1022003E08007A
:1008D800831603138512051205108510051185115D
:1008E8008312851205128511051185100510242023
:1008F800242024208514051485161A208512242006
:1009080085161A208512242085161A20851224207F
:10091800051085161A208512242085161A2085129E
:100928008510851585161A20851224208511051431
:1009380085161A208512051085161A20851224207E
:1009480085161A208512051485161A20851224206A
:10095800051085161A2085128515051585140514A8
:0C09680085161A20851224206214080055
:10097400831203132230FC00F801F901FA01FB0190
:10098400FC030319F02C0310FB0CFA0CF90CF80C03
:10099400F30CF20CF10CF00C031CC22CFC03031935
:1009A400E22C7408F80775080318750FF907760820
:1009B4000318760FFA0777080318770FFB07C62C7E
:1009C4007408F80775080318750FF90776080318F3
:0E09D400760FFA0777080318770FFB07080065
:1009E200803083120313F0007008083E8400FF3049
:0409F2008000080079
:1009F6000A278316031788018901F12433308316E9
:100A0600990018156E2360308100A0308B0083306A
:100A1600831681006C240C308316E5004E20DE011F
:100A2600DF010130DC000030DD00D801D901D6013C
:100A3600D701D401D5018030F0008430F1001E309A
:100A4600F2000030F3002108F4002208F50000301F
:100A5600F51BFF30F600F700BA24E830F400033047
:100A6600F500F601F701B7230030F4000A30F5006F
:100A7600F601F701B7237008DA007108DB00061AE1
:100A8600CF2EA030E9002330EA0047230130E900E9
:100A96000130EA00A030EB006F22061A532D502DCC
:100AA60001308316E5004E20A030E9003A30EA0016
:100AB60047230130E9000130EA00A030EB006F2245
:100AC6005B085F02031D692D5A085E02031C6C2D2C
:100AD600B92D402370080319B82D35237008E50099
:100AE6007008E900262370080319912D5408F000B8
:100AF6005508F1000A30F4000030F5008C23303040
:100B06006502F200F301031CF30372087007D400B8
:100B160071080318013E7307D500B82D80305506BD
:100B2600F00080307002031D9A2D01305402031C20
:100B3600B62D8030F000803055067002031DA52DBD
:100B46005408103C031CB62D5408F0005508F1005B
:100B5600F00DF10D70107008BE3E8400013080006B
:100B66000030840A8000D401D501632D80305506FB
:100B7600F00080307002031DC22D01305402031CA8
:100B8600DE2D8030F000803055067002031DCD2D1D
:100B96005408103C031CDE2D5408F0005508F100E3
:100BA600F00DF10D70107008BE3E8400013080001B
:100BB6000030840A8000A030E9004B30EA00472369
:100BC60001308316E5004E200130E9000130EA00CD
:100BD600A030EB006F22E6017E237008E600700865
:100BE6000319EF2D532E0130DC02031CDD03803088
:100BF600F00080305D067002031D032E5C08003C89
:100C0600031C092E0130DC000030DD00632E0130AC
:100C16008316E5004E20632E5C08F0005D08F100A7
:100C2600F00DF10D70107008BE3E84000008F10052
:100C3600840A0008F20000307206031D242E0130DB
:100C46007106031D372EA030E9004930EA0047231C
:100C56000130E9005C08EA00A030EB006F220330A7
:100C6600D6070318D70A472EA030E9003830EA0025
:100C760047230130E9005C08EA00A030EB006F2250
:100C86000230D602031CD7030130DC000030DD0041
:100C9600D80A0319D90A632EDC0A0319DD0A632E62
:100CA6006608023A0319F62D6608053A03190A2E54
:100CB6006608063A03190F2E66080A3A03194F2EDC
:100CC60000305906031D692E03305806031D932E66
:100CD6001A30FC00F830FD00FD0B6F2EFC0B6F2E5A
:100CE600000001308316E5004E20A030E9002E30CA
:100CF600EA0047230130E9000130EA00A030EB00AA
:100D06006F225608E9005708EA00A030EB00B1222E
:100D16000130E9000B30EA00A030EB006F22942E80
:100D2600EE2D0130E3000030E40080306406F00070
:100D360080307002031DA12E103063020318C52EE9
:100D46006308F0006408F100F00DF10D70107008F2
:100D5600BE3E84000008F100840A0008F20000305C
:100D66007206031DB82E01307106031DC12E023016
:100D7600E9006308EA003630EB006F22E30A031944
:100D8600E40A982E1A30FC00F830FD00FD0BC92E3F
:0C0D9600FC0BC92E00000612422DD02ECE
:100E140021308400333083120313F000D630E00015
:080E24000630E1006223080022
:040DAC007834003463
:100DB000533474346134723474342034673461349D
:060DC0006D3465340034BF
:100DC60050346F3469346E34743473343A340034C6
:040DD6002A34003487
:040DDA005834003455
:100DDE0049346E3469347434693461346C34693432
:0E0DEE007A346134743469346F346E340034F6
:040DFC002A34003461
:100E00004E34653477342034673461346D3465345E
:020E10000034AC
:04400E00F22F000786
:00000001FF
