:02000000432893
:0E0006008312031355088A0054088200080074
:1000140003208A110A128000840AD40A0319D50A1B
:08002400F003031D0A28080087
:10002C00831203135A0803178D0083168C130C14B8
:08003C0083120C08F00008001B
:10004400831603178C1C282800002228831203130C
:100054005A0803178D0003135B0803178C008316DB
:100064008C130C150B08F0008B1355308D00AA303F
:100074008D008C14F01B40288B1341288B170C1116
:02008400080072
:100086003821831603138601FF3085000317880184
:100096008901831203138601D801D90180305906DC
:1000A600F00080307002031D5A28093058020318E8
:1000B60071285808F0005908F100F00DF10D701084
:1000C6007008203E84000008DA003008DB00222099
:1000D60083120313D80A0319D90A51280313D80126
:1000E600D90180305906F00080307002031D7D284A
:1000F600093058020318EA285808F0005908F10098
:10010600F00DF10D70107008443E84000008F100F7
:10011600840A0008F20000307206031D9428710854
:100126000506031DE428420843040319C728C20133
:10013600C3015808F0005908F100F00DF10D7010D8
:100146007008323E8400000886007008443E840031
:100156000008D600840A0008D7007008203E8400F4
:100166000008DA001620700A0313DB005808F000B6
:100176005908F100F00DF10D70107008203E840052
:100186000008DA002220E428831203135808F0003E
:100196005908F100F00DF10D70107008443E84000E
:1001A6000008F100840A0008F20072085706031DD1
:1001B600DE28560871060319E4280130C200003013
:1001C600C30083120313D80A0319D90A7428200816
:1001D600DA00162001307002F100F201031CF2036E
:1001E60000307206031DF92803307106031DFC2832
:0601F600FD287128FD2820
:1002700020308400343083120313F0000330D400A4
:080280000130D5000A2008003E
:10020600003400340234003404340034063400343C
:1002160008340034103400341234003414340034FA
:04022600003400346C
:10022A0079340034063400345B3400344F340034FB
:10023A00663400346D3400347D34003407340034BD
:04024A000134003447
:10024E0000340034083400341034003418340034D0
:10025E002034003428340034303400343834003440
:04400E00F22F000786
:00000001FF
