:02000000512A83
:10000800FF00030E8301CD000A08CE008A018B1C75
:100018000F28AB0A8B100B1D1728A90A0319AA0A67
:100028000B11603081004E088A004D0E8300FF0ED0
:040038007F0E09002E
:06003C00000000000800B6
:100042000F3083120313FC004730FD00FD0B2728FD
:0A005200FC0B272800000000080046
:0E005C00213083120313FD00FD0B3228080033
:10006A0083120313DD1B3B2885113C2885155D1B74
:10007A004028051141280515DD1A4528851046280E
:10008A0085145D1A4A2805104B2805142C184F2888
:10009A0005165028051285161E208512DD195728C7
:1000AA008511582885155D195C2805115D280515E7
:1000BA00DD1861288510622885145D1866280510E8
:1000CA00672805142C186B2805166C280512851646
:1000DA001E2085122C1C7328212074282E2008002B
:1000EA0083120313F801F9011030FC00710DF80DA9
:1000FA00F90D7408F8027508031C750FF902031844
:10010A008D287408F80775080318750FF907031086
:0A011A00F00DF10DFC0B7B2808002E
:10012400831203132C105808DD0035202C1408000A
:1001340083120313DB0105305B020318A8285B0854
:100144005A07840020308000DB0A9D285B085A0788
:1001540084008001DB035B085A07DC000A30F400EA
:10016400F5015808F0005908F10075207808F000EE
:100174007908F1003030F0075C08840070088000D2
:100184000A30F400F5015808F0005908F100752010
:100194007008D8007108D90000307106031DD428F6
:1001A40000307006031DD728D928DB03AD280800CA
:0E01B4008312031338088A00370882000800FF
:1001C20083120313D401D5014F08D6005008D7007B
:1001D20080305006F00080307002031DF22800309B
:1001E2004F02031800290130D4000030D5004F0817
:1001F200003CD6005008031C013ED701D702560826
:10020200D8005708D9005108DA009A200630D200E7
:100212000030D3005308003C031D11295208003C52
:1002220003182C2952085107F20001305202F00043
:100232000030031C013E5302F10070085107840094
:100242000008F00072088400700880000130D202B9
:10025200031CD3030B29510884002030800054086A
:10026200550403194A29D201D301520851078400C7
:100272000008203A031D4129D20A0319D30A36295C
:100282000130D202031CD3035208510784002D30DF
:0402920080000800E0
:100296005D29803083120313CF007029C030CF0050
:1002A60070299430CF007029D430CF007029803067
:1002B600CF007029831203134F08013A03194C2902
:1002C6004F08023A031951294F08033A03195429D2
:1002D6004F08043A031957295A295003F0004F08CA
:1002E600F0077008CF007008DD0035202C10D20111
:1002F600520851078400000803198929520851073A
:1003060084000008D8009220D20A7B292C14080009
:1003160083120313FD01F8017008031900347406F3
:10032600FA00FA1BFD09FB01F41F9B29F409F40AE4
:10033600F01F9F29F009F00A70087404FA00FA1BEE
:10034600C3297408F802F00D700DF80D7408F8074B
:10035600F00D0630FC00700DF80D74087018F802E8
:10036600701CF807F00DFC0BAE29701CF8077B1803
:10037600D129FD1F0034F009F00AF809F80A003403
:10038600F41FCE29F01BCB297008F800F001BC2918
:10039600F001F00A0034F009FB0AA429F80A7408EF
:1003A6007802031DBC29F801F00AF01FBC29FF34AE
:0203B60008003D
:1003B8008316031385120512051085100511851182
:1003C800831285120512851105118510051021204B
:1003D800212021208514051485161E208512212030
:1003E80085161E208512212085161E2085122120A3
:1003F800051085161E208512212085161E208512BF
:100408008510851585161E20851221208511051455
:1004180085161E208512051085161E20851221209E
:1004280085161E208512051485161E20851221208A
:10043800051085161E2085128515051585140514C9
:0C04480085161E20851221202C140800AF
:10045400DA208A110A128000840AB70A0319B80A3A
:08046400F003031D2A2A080021
:10046C00831203134F08F2007208F100F20A5008CD
:10047C00F000D00A700884000008F00071088400B5
:10048C007008800071088400000803194E2A3A2A6B
:06049C004F08F00008000B
:1004A20083120313A001A1014D30A2006130A30009
:1004B2007230A4007430A5006930A6006E30A70027
:1004C200A801A901AA01AB01033083168100031719
:1004D2008801890183120313860101308316860085
:1004E200B0308B006030831281002B08003A031D6C
:1004F2007B2A762AAB03DC210C30DD00352001306B
:10050200DD0035203930CF002230D00036220230D3
:10051200F4002B08F0008B217808F0007008003AF4
:10052200031D9B2A0130CF000B30D0003930D1009F
:100532004B21D42A0230F4002B08F0008B217808DA
:10054200F0007008013A031DD42AA001A101023073
:10055200F4002B08F0008B217808F0007008013AB3
:10056200031DD42A00302A02031DB92A1A30290297
:10057200031CD32A0130DD0035202008CF002108DA
:10058200D0002D30D100E1200130CF000130D00069
:100592002D30D1004B210530A0070318A10A0130EC
:0A05A200DD003520A82A882AD52A9A
:04400E00F22F000786
:00000001FF
