:02000000F62BDD
:10000800FF00030E83018316E9000A08E8008A014D
:100018000B1D15288312EA0A0319EB0A0B1160302D
:100028008100831668088A00690E8300FF0E7F0E20
:020038000900BD
:06003A00000000000800B8
:100040000F3083120313FC004730FD00FD0B262800
:0A005000FC0B262800000000080049
:0E005A00213083120313FD00FD0B3128080036
:1000680083120317B31B3B28031385113D28031381
:1000780085150317331B432803130511452803135C
:1000880005150317B31A4B28031385104D280313BE
:1000980085140317331A532803130510552803131F
:1000A80005146C18592805165A28051285161D209E
:1000B80085120317B31963280313851165280313E1
:1000C8008515031733196B28031305116D280313BE
:1000D80005150317B3187328031385107528031320
:1000E8008514031733187B28031305107D28031381
:1000F80005146C18812805168228051285161D20FE
:0E01080085126C1C892820208A282D200800D2
:1001160083120313F801F9011030FC00710DF80D7C
:10012600F90D7408F8027508031C750FF902031817
:10013600A3287408F80775080318750FF907031044
:0A014600F00DF10DFC0B91280800EC
:1001500083120317AE01B001B1011030B2000430B8
:1001600031020318DD28F030031388008030F000DE
:100170007008083E840003173209F0007008800000
:100180001D201D200F3003130805F0007008031711
:10019000AF0070080319D7283008AE002F080319E4
:1001A000D528AF0CAF13AE0ACE280430B100B20D83
:1001B00032100430B007B10AAF282E08F000080052
:1001C0000E3083120313FD00FD0BE428000008002D
:1001D000710DF80DF90D7408F8027508031C750F00
:1001E000F902F00DF10D0F30FC00710DF80DF90D55
:1001F0007408701C0129F8027508031C750FF902B8
:100200000629F80775080318750FF907F00DF10DA9
:10021000FC0BF528701812297408F80775080318E4
:08022000750FF907000008004A
:0E0228008312031363088A0062088200080034
:10023600831203136C1003172E08B30034206C14BA
:020246000800AE
:1002480083120317B101053031020318322931082E
:100258003007840020308000B10A27293108300790
:1002680084008001B10331083007B2000A30F4007D
:10027800F5012E08F0002F08F1008B207808F00017
:100288007908F1003030F00703173208840070084D
:1002980080000A30F400F5012E08F0002F08F10064
:1002A8008B2070080317AE007108AF00003071068C
:1002B800031D602900307006031D63296529B103F9
:0402C80037290800CA
:1002CC00063083120313FD00FD0B6A2900000800A1
:1002DC0083120313FB01FA01F9018030F800F10CD1
:1002EC00F00C031C82297408F90775080318750FA4
:1002FC00FA070318FB0A0310F01F8A297408FA077F
:10030C0075080318750FFB07FB0CFA0CF90CF80CAD
:10031C00031C75297B08F3007A08F2007908F100B8
:06032C007808F000080053
:10033200AB29803083160313EB00BE29C030EB00DB
:10034200BE299430EB00BE29D430EB00BE298030A8
:10035200EB00BE29831603136B08013A03199A298D
:100362006B08023A03199F296B08033A0319A22961
:100372006B08043A0319A529A8296C03F0006B083D
:10038200F0077008EB0083126C1470080317B300B7
:1003920034206C1083166D0883120317B3003420C7
:0403A2006C140800CF
:1003A600A820700883160313EB000F30831208058C
:1003B600F0000319E0296621D82983166B08F0009E
:0203C60008002D
:1003C800831203137408003A031DF3297508003AD1
:1003D800031DF329FF30F0007F30F1004C2A83120F
:1003E8000313FD01F901F8017108700403190034C1
:1003F80071087506FA00FA1BFD09FB01F51F092AA9
:10040800F409F509F40A0319F50AF11F102AF0098D
:10041800F109F00A0319F10A71087504FA00FA1BC8
:10042800252AE8207B18382AFD1F0034F009F10935
:10043800F00A0319F10AF809F909F80A0319F90A7F
:100448000034F51F342AF11B302A7108F9007008AE
:10045800F800F101F001182AF101F001F00A003466
:10046800F109F009FB0A152AF80A0319F90A7408B0
:100478007802031D182A75087902031D182AF90144
:10048800F801F00A0319F10AF11F182A0000FF34D5
:0204980008005A
:10049A005F2A803083160313EB00722AC030EB0008
:1004AA00722A9430EB00722AD430EB00722A803020
:1004BA00EB00722A831603136B08013A03194E2ABA
:1004CA006B08023A0319532A6B08033A0319562A8E
:1004DA006B08043A0319592A5C2A6C03F0006B086A
:1004EA00F0077008EB00700883120317B30034207A
:1004FA006C108316EE016E086D078400000803195C
:10050A00912A6E086D078400000883120317AE0053
:0E051A001B218316EE0A802A83126C1408003F
:10052800831603136B08F2007208F100F20A6C08D4
:10053800F000EC0A700884000008F00071088400DC
:10054800700880007108840000080319AC2A982AF2
:060558006B08F000080032
:0E055E000030831203138C1A0130F0000800E5
:10056C0083160313981690308312980083168717FE
:10057C00071383128C1EC52A1A08F000BF2A080024
:10058C00831603136B08393C031CD32A30306B02DF
:0E059C00031CD32A0130F000D42AF00108001D
:1005AA00C330831203139F05C0309F0083166B0864
:1005BA00F000F00D7010F00D7010700883129F0497
:1005CA004909F000700883169F059F1783121F14AC
:1005DA00E0209F149F1CF32A0000EF2A1F101E0818
:1005EA00F100F00183161E08F0040030F10408003F
:1005FA0083120317AA01AB01831603136B08831234
:10060A000317AC00831603136C0883120317AD009B
:10061A008030831603136C06F00080307002031DCD
:10062A00182B00306B020318302B0130831203178A
:10063A00AA000030AB00831603136B08003C831238
:10064A000317AC00831603136C08031C013E8312C4
:10065A000317AD01AD02831203172C08AE002D0853
:10066A00AF00831603136D0883120317B000242109
:10067A00063083160313EE000030EF006F08003CCB
:10068A00031D492B6E08003C0318642B6E086D0786
:10069A00F20001306E02F0000030031C013E6F02CE
:1006AA00F10070086D0784000008F00072088400E9
:1006BA00700880000130EE02031CEF03432B6D0823
:1006CA00840020308000831203172A082B040319A0
:1006DA00862B83160313EE01EF016E086D07840063
:1006EA000008203A031D7D2BEE0A0319EF0A722B2C
:1006FA000130EE02031CEF036E086D0784002D30F3
:04070A008000080063
:10070E008316031385120512051085100511851128
:10071E0083128512051285110511851005102020F2
:10072E00202020208514051485161D2085122020DA
:10073E0085161D208512202085161D20851220204D
:10074E00051085161D208512202085161D20851268
:10075E008510851585161D208512202085110514FE
:10076E0085161D208512051085161D208512202048
:10077E0085161D208512051485161D208512202034
:10078E00051085161D208512851505158514051471
:0C079E0085161D20851220206C14080018
:1007AA00803083120313F0007008083E8400FF3083
:0407BA0080000800B3
:1007BE0014218A110A128000840AE20A0319E30A3C
:0807CE00F003031DDF2B0800FE
:1007D600831203131A08F100981CF32B181218162B
:0607E6007108F00008009C
:1007EC004E2783120313E401E501831603178801D6
:1007FC0010308900FF308600333003139900181530
:10080C00B62260308100A0308B00833083168100CB
:10081C008312EA01EB011330E8000030E900DC013F
:10082C00DD01DE01DF01E601E701D52387230C3072
:10083C000317B3003420DB01D32170088312DB00D3
:10084C0070080319222CE62EA0308316EB002F30F3
:10085C00EC0094220130EB000130EC00A030ED00F4
:10086C004D22E001E10101300317B3003420A03028
:10087C008316EB002030EC0094220130EB000130A9
:10088C00EC00A030ED004D224130FC00EE30FD00BC
:10089C00FD0B4E2CFC0B4E2C00000C308316EB0089
:1008AC00D52270088312E0007108E1008030F2005C
:1008BC00803071067202031D652C7008093C031808
:1008CC00CF2C80306106F00080307002031D702C3C
:1008DC00643060020318CF2C6608F0006708F10042
:1008EC00F00DF10D70107008CE3E84006008800091
:1008FC006108840A8000E60A0319E70A5E08C13E13
:10090C008316EA000A30F4000030F5008312600808
:10091C00F0006108F100E4213030F00783166A081A
:10092C008400700880008312DE0A0319DF0A5E0857
:10093C00C13E8316EA000A30F4000030F500831241
:10094C006008F0006108F100E4217808F0007908F3
:10095C00F1003030F00783166A08840070088000BC
:10096C008312DE0A0319DF0ADC0A0319DD0A0130DF
:10097C000317B3003420A0308316EB005030EC008A
:10098C0094220130EB000130EC00A030ED004D2240
:10099C00D02C392C00305D06031DD62C06305C069D
:1009AC00031DEF2D01300317B300342001308316E3
:1009BC00EB000130EC00C130ED004D22DC01DD011B
:1009CC00DE01DF01E601E701AF2270080319EE2D0D
:1009DC00EB237008EF0070088316EB00C62270083A
:1009EC000319102D83126D08F0006E08F1000A3007
:1009FC00F4000030F5006E2130306F02F200F3018C
:100A0C00031CF30372087007ED0071080318013E14
:100A1C007307EE0083126F082D3A031DC02D803032
:100A2C00F00080306E067002031D1E2D6D08633CB5
:100A3C0003189A2D80306E06F0008030033A700255
:100A4C00031D2A2DE8306D0203189A2D6608F0005C
:100A5C006708F100F00DF10D70107008103E840065
:100A6C006D0880006E08840A8000E60A0319E70A04
:100A7C005E08B43E8316EA006430F4000030F500E2
:100A8C0083126D08F0006E08F100E4213030F0079D
:100A9C0083166A088400700880008312DE0A03192A
:100AAC00DF0A5E08B43E8316EA000A30F400003018
:100ABC00F50083126D08F0006E08F100E4210A3095
:100ACC00F4000030F500E4217808F0007908F1001A
:100ADC003030F00783166A08840070088000831297
:100AEC00DE0A0319DF0A5E08B43E8316EA000A30F8
:100AFC00F4000030F50083126D08F0006E08F10070
:100B0C00E4217808F0007908F1003030F007831602
:100B1C006A088400700880008312DE0A0319DF0A59
:100B2C00DC0A0319DD0AC02DDC01DD01DE01DF0169
:100B3C00E601E701A0308316EB003D30EC00942277
:100B4C00013083120317B300342001308316EB00FD
:100B5C000130EC00A030ED004D224130FC00EE30B5
:100B6C00FD00FD0BB72DFC0BB72D0000013003175A
:100B7C00B30034206F08243A031DEE2D00305D06BF
:100B8C00031DCA2D04305C060319ED2DA03083160D
:100B9C00EB003730EC009422013083120317B300C2
:100BAC00342001308316EB000130EC00A030ED0056
:100BBC004D224130FC00EE30FD00FD0BE32DFC0B13
:100BCC00E32D000001300317B3003420EE2DEF2D80
:100BDC00EA2C372C0130E402031CE503022FA03071
:100BEC008316EB004330EC0094220230EB00013012
:100BFC00EC00A030ED004D22022F6408F0006508D7
:100C0C00F100F00DF10D70107008CE3EF20072087C
:100C1C0084000008F000840A0008F100F00A0319AF
:100C2C00F10A72088400700880007108840A800040
:100C3C006408C13EF3006408F0006508F100F00D93
:100C4C00F10D70107008CE3E840030300007F000BB
:100C5C00730884007008800001308316EB00831247
:100C6C00640A8316EC0083126408C13E84000008F9
:100C7C008316ED009921022FDC01DD01E601E7016D
:100C8C0080306706F00080307002031D4F2E11304B
:100C9C0066020318772E6608F0006708F100F00D65
:100CAC00F10D70107008CE3E84000008F300840A29
:100CBC000008F4007008103E84000008F100840A5B
:100CCC000008F20074087206031D6E2E710873067C
:100CDC000319732EDC0A0319DD0AE60A0319E70A65
:100CEC00462EA0308316EB004A30EC0094220130E3
:100CFC0083120317B300342001308316EB0001304C
:100D0C00EC00A030ED004D225C088316EB00831242
:100D1C005D088316EC00A030ED00FD220230831636
:100D2C000313EB000130EC00A030ED004D226330DA
:100D3C00DC000030DD00022F6408F0006508F100D3
:100D4C00F00DF10D70107008CE3EF20072088400A8
:100D5C000008F000840A0008F1000130F002031CC6
:100D6C00F10372088400700880007108840A800006
:100D7C006408C13EF3006408F0006508F100F00D52
:100D8C00F10D70107008CE3E840030300007F0007A
:100D9C00730884007008800001308316EB00831206
:100DAC00640A8316EC0083126408C13E84000008B8
:100DBC008316ED009921022FE40A0319E50A022F8C
:100DCC005B08013A03192A2C5B08023A0319F02D2F
:100DDC005B08053A0319F52D5B08063A0319032E37
:100DEC005B08093A0319422E5B080A3A0319A22E32
:100DFC005B080E3A0319E22E00305D06031D082F26
:100E0C0063305C06031D0B2F0C2F212C212C0D2F76
:100E9C00203084003B3083120313F0001330E20047
:080EAC000730E300DF2308001A
:100E26004D3461346B346534203469346E34703437
:0E0E36007534743420346E346F3477340034E5
:100E4400523445344134443449344E344734003404
:0C0E54004534723472346F347234003450
:0C0E60004534723472346F347234003444
:0C0E6C00533454344134523454340034B4
:020E7800303414
:0C0E7A004534723472346F34723400342A
:100E860049346E3470347534743420346D346134BE
:060E9600643465340034F1
:04400E00F22F000786
:00000001FF
