:02000000572B7C
:06000600000000000800EC
:10000C000F3083120313FC004730FD00FD0B0C284E
:0A001C00FC0B0C2800000000080097
:0E002600213083120313FD00FD0B1728080084
:1000340083120313F801F9011030FC00710DF80D5F
:10004400F90D7408F8027508031C750FF9020318FA
:1000540032287408F80775080318750FF907031098
:0A006400F00DF10DFC0B2028080040
:10006E0083160313A91B3E28831286114028831280
:10007E0086158316291B46288312061148288312DB
:10008E0006158316A91A4E2883128610502883123D
:10009E0086148316291A562883120610582883129E
:1000AE00061434185C2806165D28061286160320E0
:1000BE0086128316A9196628831286116828831260
:1000CE008615831629196E2883120611702883123D
:1000DE0006158316A918762883128610782883129F
:1000EE008614831629187E28831206108028831200
:1000FE000614341884280616852806128616032040
:0E010E008612341C8C2806208D281320080031
:10011C00710DF80DF90D7408F8027508031C750FB4
:10012C00F902F00DF10D0F30FC00710DF80DF90D09
:10013C007408701CA728F8027508031C750FF902C7
:10014C00AC28F80775080318750FF907F00DF10DB9
:10015C00FC0B9B287018B8287408F807750803184E
:08016C00750FF90700000800FF
:0E0174008312031331088A003008820008004D
:1001820083160313A701053027020318CF28270877
:100192002607840020308000A70AC42827082607E3
:1001A20084008001A70327082607A8000A30F4006C
:1001B200F5012408F0002508F1001A207808F00063
:1001C2007908F1003030F00783162808840070089F
:1001D20080000A30F400F5012408F0002508F1003F
:1001E2001A2070088316A4007108A5000030710659
:1001F200031DFD2800307006031D00290229A703F4
:04020200D4280800F4
:1002060083160313A401A601A7011030A800043029
:10021600270203183829F030831288008030F00056
:100226007008083E840083162809F00070088000D4
:10023600032003200F3083120805F0007008831690
:10024600A5007008031932292608A40025080319F9
:100256003029A50CA513A40A29290430A700A80D46
:1002660028100430A607A70A0A292408F000080067
:10027600063083120313FD00FD0B3F290000080022
:100286000E3083120313FD00FD0B47290000080002
:1002960083120313341083162408A900372034145C
:0202A60008004E
:1002A800831203137408003A031D63297508003A82
:1002B800031D6329FF30F0007F30F100BC29831251
:1002C8000313FD01F901F8017108700403190034E2
:1002D80071087506FA00FA1BFD09FB01F51F79295B
:1002E800F409F509F40A0319F50AF11F8029F00940
:1002F800F109F00A0319F10A71087504FA00FA1BEA
:1003080095298E207B18A829FD1F0034F009F109D2
:10031800F00A0319F10AF809F909F80A0319F90AA0
:100328000034F51FA429F11BA0297108F9007008F1
:10033800F800F101F0018829F101F001F00A003418
:10034800F109F009FB0A8529F80A0319F90A740862
:100358007802031D882975087902031D8829F90187
:10036800F801F00A0319F10AF11F88290000FF3487
:0203780008007B
:10037A00831203136B08F2007208F100F20A6C0888
:10038A00F000EC0A700884000008F000710884008C
:10039A00700880007108840000080319D529C12952
:0603AA006B08F0000800E2
:1003B00083160313A001A10183126B088316A20008
:1003C00083126C088316A300803083126C06F00041
:1003D00080307002031DEE2900306B020318012AE1
:1003E00001308316A0000030A10083126B08003C8E
:1003F0008316A20083126C08031C013E8316A3011E
:10040000A30283162208A4002308A50083126D0806
:100410008316A600C12006308312EE000030EF00E4
:100420006F08003C031D162A6E08003C0318312A91
:100430006E086D07F20001306E02F0000030031C00
:10044000013E6F02F10070086D0784000008F000A3
:1004500072088400700880000130EE02031CEF0374
:10046000102A6D08840020308000831620082104A3
:100470000319512A8312EE01EF016E086D07840003
:100480000008203A031D482AEE0A0319EF0A3D2A04
:100490000130EE02031CEF036E086D0784002D305F
:0404A00080000800D0
:1004A40083120313FB01FA01F9018030F800F10C07
:1004B400F00C031C662A7408F90775080318750FF5
:1004C400FA070318FB0A0310F01F6E2A7408FA07D0
:1004D40075080318750FFB07FB0CFA0CF90CF80CE4
:1004E400031C592A7B08F3007A08F2007908F1000A
:0604F4007808F00008008A
:1004FA008F2A803083120313EB00A22AC030EB004C
:10050A00A22A9430EB00A22AD430EB00A22A80302F
:10051A00EB00A22A831203136B08013A03197E2AFD
:10052A006B08023A0319832A6B08033A0319862ACD
:10053A006B08043A0319892A8C2A6C03F0006B08A9
:10054A00F0077008EB0070088316A90037203410F2
:10055A00EE016E086D07840000080319BD2A6E08B3
:10056A006D07840000088316A4004B21EE0AAE2A08
:04057A00341408002D
:10057E00BA208A110A128000840AB00A0319B10A3D
:08058E00F003031DBF2A080061
:10059600831603138612061206108610061186119C
:1005A6008312861206128611061186100610062080
:1005B60006200620861406148616032086120620B8
:1005C600861603208612062086160320861206202B
:1005D600061086160320861206208616032086122B
:1005E60086108615861603208612062086110614A6
:1005F600861603208612061086160320861206200B
:1006060086160320861206148616032086120620F6
:1006160006108616032086128615061586140614FD
:0C062600861603208612062034140800FB
:10063200803083120313F0007008083E8400FF30FC
:04064200800008002C
:10064600C330831203139F05C0309F006B08F00070
:10065600F00D7010F00D701070089F042A09F0005C
:10066600700883169F059F1783121F1443219F143A
:100676009F1C3F2B00003B2B1F101E08F100F001B2
:0C06860083161E08F0040030F104080088
:10069200032170088312EB000F300805F0000319E4
:0C06A200542B3B214D2B6B08F00008008E
:1006AE00C42601308316031788008901FF30031317
:1006BE0085001923CB2201308316A90037200C3078
:1006CE008316A9003720AF0149237008AF007008C8
:1006DE0003196B2B792E0130BF000030C0000130A2
:1006EE00EB000030EC003530ED00D82101308312E4
:1006FE000313EB000130EC003530ED007D227F302E
:10070E00F00080302E067002031D8F2B2D08FF3C4B
:10071E000318B52B2D08F0002E08F1000A30F40056
:10072E000030F50052223F08F00740080318013E42
:10073E00F1077008AD007108AE007008EB0071088B
:10074E00EC003530ED00D821013083120313EB009D
:10075E000130EC003530ED007D22B92B3F08AD00A5
:10076E004008AE00AD2E0430BF000030C000043093
:10077E00EB000030EC003530ED00D8210130831253
:10078E000313EB000130EC003530ED007D227F309D
:10079E00F00080302E067002031DD72B2D08FF3C73
:1007AE000318F22B0130EB000230EC003530ED0077
:1007BE007D222D08F0002E08F1000A30F4000030E2
:1007CE00F50052223F087007AD0071080318013E74
:1007DE004007AE00F62B3F08AD004008AE00AD2E30
:1007EE000730BF000030C0000730EB000030EC00D7
:1007FE003530ED00D821013083120313EB000130A8
:10080E00EC003530ED007D227F30F00080302E067A
:10081E007002031D142C2D08FF3C03182F2C0130E1
:10082E00EB000230EC003530ED007D222D08F0009B
:10083E002E08F1000A30F4000030F50052223F0875
:10084E007007AD0071080318013E4007AE00332C4F
:10085E003F08AD004008AE00AD2E0230BF000030A4
:10086E00C0000230EB000030EC003530ED00D82136
:10087E00013083120313EB000130EC003530ED0034
:10088E007D227F30F00080302E067002031D512C29
:10089E002D08FF3C03186C2C0130EB000230EC00ED
:1008AE003530ED007D222D08F0002E08F1000A30C3
:1008BE00F4000030F50052223F087007AD007108B9
:1008CE000318013E4007AE00702C3F08AD004008F3
:1008DE00AE00AD2E0530BF000030C0000530EB007D
:1008EE000030EC003530ED00D821013083120313B7
:1008FE00EB000130EC003530ED007D227F30F00052
:10090E0080302E067002031D8E2C2D08FF3C03181E
:10091E00A92C0130EB000230EC003530ED007D22C9
:10092E002D08F0002E08F1000A30F4000030F5001A
:10093E0052223F087007AD0071080318013E4007B0
:10094E00AE00AD2C3F08AD004008AE00AD2E083015
:10095E00BF000030C0000830EB000030EC00353036
:10096E00ED00D821013083120313EB000130EC00AF
:10097E003530ED007D227F30F00080302E06700283
:10098E00031DCB2C2D08FF3C0318E62C0130EB0089
:10099E000230EC003530ED007D222D08F0002E08DF
:1009AE00F1000A30F4000030F50052223F087007C3
:1009BE00AD0071080318013E4007AE00EA2C3F0857
:1009CE00AD004008AE00AD2EBF01C001EB01EC0141
:1009DE003530ED00D821013083120313EB000130C6
:1009EE00EC003530ED007D227F30F00080302E0699
:1009FE007002031D042D2D08FF3C03181F2D01301E
:100A0E00EB000230EC003530ED007D222D08F000B9
:100A1E002E08F1000A30F4000030F50052223F0893
:100A2E007007AD0071080318013E4007AE00232D7C
:100A3E003F08AD004008AE00AD2E0330BF000030C1
:100A4E00C0000330EB000030EC003530ED00D82153
:100A5E00013083120313EB000130EC003530ED0052
:100A6E007D227F30F00080302E067002031D412D56
:100A7E002D08FF3C03185C2D0130EB000230EC001A
:100A8E003530ED007D222D08F0002E08F1000A30E1
:100A9E00F4000030F50052223F087007AD007108D7
:100AAE000318013E4007AE00602D3F08AD00400820
:100ABE00AE00AD2E0630BF000030C0000630EB0099
:100ACE000030EC003530ED00D821013083120313D5
:100ADE00EB000130EC003530ED007D227F30F00070
:100AEE0080302E067002031D7E2D2D08FF3C03184C
:100AFE00992D0130EB000230EC003530ED007D22F7
:100B0E002D08F0002E08F1000A30F4000030F50038
:100B1E0052223F087007AD0071080318013E4007CE
:100B2E00AE009D2D3F08AD004008AE00AD2E093041
:100B3E00BF000030C0000930EB000030EC00353053
:100B4E00ED00D821013083120313EB000130EC00CD
:100B5E003530ED007D227F30F00080302E067002A1
:100B6E00031DBB2D2D08FF3C0318D62D0130EB00C5
:100B7E000230EC003530ED007D222D08F0002E08FD
:100B8E00F1000A30F4000030F50052223F087007E1
:100B9E00AD0071080318013E4007AE00DA2D3F0884
:100BAE00AD004008AE00AD2EEB012323700883127A
:100BBE00E9007108EA007008EB007108EC003530AE
:100BCE00ED00D821013083120313EB000130EC004D
:100BDE003530ED007D222B08F0002C08F100F00DD1
:100BEE00F10D70107008413E8400690880006A089B
:100BFE00840A8000AB0A0319AC0AAD2E8030F000D7
:100C0E0080302E067002031D0E2E2D08143C031884
:100C1E001C2E3530EB002030EC00BD210130EB00F6
:100C2E000130EC003530ED007D222D08F0002E084D
:100C3E00F100F00DF10D70107008413E84000008B7
:100C4E00EB00840A0008EC003530ED00D8210130AD
:100C5E0083120313EB000130EC003530ED007D22E2
:100C6E00AD2EB201B30180303306F00080302C0679
:100C7E007002031D442E2B08320203185B2E32081D
:100C8E00F0003308F100F00DF10D70107008413EC8
:100C9E0084000008A807840A00080318013EA9076B
:100CAE00B20A0319B30A3A2E2B08F4002C08F500E9
:100CBE002808F0002908F10054217008A8007108D6
:100CCE00A9007008EB007108EC003530ED00D8215A
:100CDE00013083120313EB000130EC003530ED00D0
:100CEE007D22AD2E2F08013A0319722B2F08023ADE
:100CFE000319BA2B2F08033A0319F72B2F08053ABD
:100D0E000319342C2F08063A0319712C2F08073AB1
:100D1E000319AE2C2F08083A0319EB2C2F08093AA9
:100D2E000319242D2F080A3A0319612D2F080B3AA7
:100D3E0003199E2D2F080D3A0319DB2D2F080E3A9D
:100D4E000319052E2F080F3A0319382E6A2BAE2ED3
:100D8800203084000F3083120313F000B430B00019
:080D98000630B100BF22080083
:100D6800473472346534733468346B346134003416
:040D7800003400340F
:020D7C00303411
:040D7E000034003409
:040D82000034003405
:04400E00F22F000786
:00000001FF
